:100000000C9414000C9433000C9433000C943300C3
:100010000C9433000C9433000C9433000C94330094
:100020000C9433000C94F40011241FBECFEFD0E1E8
:10003000DEBFCDBF11E0A0E0B1E0E4EAF1E100E015
:100040000BBF02C007900D92A238B107D9F721E08B
:10005000A2E8B1E001C01D92A339B207E1F70E9406
:1000600048010C94D0080C940000B898C09A0895E8
:10007000892B29F08FE792E09BBD8ABD089580917E
:100080009201811519F07BBD6ABD08951BBC1ABC95
:1000900008956CE370E00E949E05282F862F4FB7CD
:1000A000F8946AE00E949205EDE8F1E08083918384
:1000B000822F0E949205828393834FBF089597B148
:1000C000907E892B87B9369A3699FECF84B195B147
:1000D00008958093730084E8809374008091740085
:1000E00087FFFCCF0895809100019091010199BD97
:1000F00088BD8091030190910401909387008093C3
:10010000860008952FB7F8946091890170918A0153
:1001100080918B0190918C012FBF089525E630E0EE
:1001200096B39170981302C081E008952150304039
:1001300029F095E09A95F1F70000F2CF80E008955C
:100140001F93CF93DF93C82F162F84EA80937400F8
:100150008091740087FFFCCF8EE40E9469008C2F91
:10016000807FD82FD12B8D2F8C600E9469008AE070
:100170008A95F1F700C08D2F88600E946900DC2FFE
:10018000D295D07FD12B8D2F8C600E9469009AE090
:100190009A95F1F700C08D2F88600E94690084E96C
:1001A0008093740011110DC0C150C23050F48FEF14
:1001B00098E10197F1F700C00000DF91CF911F9106
:1001C000089587EC90E00197F1F7F5CFCF93DF9397
:1001D000EC018881811103C0DF91CF9108952196B0
:1001E00061E00E94A000F5CF1F921FB61F9211245C
:1001F0004F934BB74F935F936F937F938F939F93DF
:10020000EF93FF9398B34091890150918A016091D7
:100210008B0170918C014C5F5F4F6F4F7F4F40930C
:10022000890150938A0160938B0170938C01892F0F
:100230008E6188BBE0919101F0E0E357FE4FE081D1
:10024000F0E0EE5EFE4F808185BBE0919101F0E031
:10025000E25FFE4F80818E71917E892B88BB8091F9
:1002600091018F5F8093910180919101843010F012
:1002700010929101FF91EF919F918F917F916F91DA
:100280005F914F914BBF4F911F901FBE1F901895CC
:10029000CDB7DEB7A5970FB6F894DEBF0FBECDBFC2
:1002A000809164008B7F8093640080916400877FDD
:1002B00080936400BE9A139A82E28FBD2BE12EBD1B
:1002C00010927A0087E893E197BD86BD32E83093BB
:1002D0008B0020938A0010928C0090938100809371
:1002E00080000E947300809161008E7F8093610086
:1002F000809161008D7F80936100809162008E7F8C
:1003000080936200809162008D7F8093620080E420
:1003100087B987E886B91FEF14BB87B38E6187BBA7
:10032000BD9A88B38E6188BBC5988CE085BD89EF86
:1003300083BD87B7806887BF599A8AB188618AB9B7
:1003400080919500866080939500109290008FECCC
:1003500089B960E070E0CB010E94380080E090E055
:100360000E94490078941092710088E48093700094
:100370002FEF30E742E0215030404040E1F700C02D
:10038000000060E083E30E94A00060E082E30E943E
:10039000A00060E088E20E94A00060E08CE00E9483
:1003A000A00060E081E00E94A0008FE39FE1019740
:1003B000F1F700C00000BD9A1ABB1BBA0E943500BD
:1003C000109292011BBA60E080E80E94A0008CE1CC
:1003D00091E00E94E60060E080EC0E94A0008CE2C8
:1003E00091E00E94E6009FEFE3EDF0E39150E040E2
:1003F000F040E1F700C00000D12CAA24A394C12C46
:10040000BA2C1601210131011AA21BA21CA21DA2A5
:10041000188E198E1A8E1B8E1E8E1F8E18A219A270
:10042000410181011C8E1D8E9E012F5F3F4F2A8B43
:100430003B8B60E05F9977C080918801811529F03E
:10044000809182018F5F80938201611569F00E9423
:100450008200688F798F8A8F9B8FB801C1010E94BB
:100460003800C1010E9449000E9482006C8B7D8B84
:100470008E8B9F8B8C899D89AE89BF898419950944
:10048000A609B709803D9740A105B10508F488C1C8
:1004900085E0EA89FB8911928A95E9F7B89AC098B4
:1004A000FFEF20EE30E0F15020403040E1F700C097
:1004B00000000E94350040EA4A95F1F780E00E9472
:1004C0008E008111A0C060E080E80E94A00088E357
:1004D00091E00E94E60060E080EC0E94A0008AE4C7
:1004E00091E00E94E6000E9482002B013C01CB01BA
:1004F000D3012AA13BA14CA15DA1821B930BA40BAC
:10050000B50B84369105A105B10508F498C108150D
:10051000190508F04AC1005F1F4F8016910608F0C8
:100520004EC184014CC18CB15D9BFECF8CB98D3026
:1005300019F08A3009F054C0F0908801F11409F4E0
:100540005FC0E3E8F1E0B0E080E090E0A0E070E0C0
:1005500050E0408120ED240F2A3018F5511571F03C
:100560003AE0739F400D1124742F70537C3318F4BC
:10057000AF5FA330D8F01092880142C02AE0E22E8B
:10058000E89E9001E99E300D1124C901C097840FA7
:10059000911D47FD9A958436910568F7BF5FB3308A
:1005A000E9CF4A3341F75111E6CF51E031964E2F52
:1005B00023E831E0421B4F1560F2B11105C051151F
:1005C000D1F2A11103C0D7CF5111FBCF4CE3489F0B
:1005D0001001499F300C1124270E311C61E0CBCF54
:1005E00090ED980F9B3038F6E0918801E53018F6D1
:1005F00091E09E0F90938801F0E0ED57FE4F8083CD
:100600001092820117CF81E00E948E00811509F4BB
:100610005ACF80E00E948E00811509F454CF3FEF3D
:10062000F32EEF2C81E00E948E00811509F44BCF50
:1006300055ED5A95F1F70000B09B14C0EE2DE095F2
:10064000E695E695E695CE0101968E0F911DFC018B
:10065000C701877021E001C0220F8A95EAF79081D7
:10066000922B908380E00E948E00811509F42BCF9D
:1006700031E0E31AF10847EDE4164FEFF40691F686
:1006800069807B808A81860D870D9C81890F9D8181
:10069000891319CF5CE1E12CF12C7516A0F08EE1E5
:1006A0009FE7E92E92E0F92E781668F4E72DEC51D9
:1006B000FF0B9F01AFE7B2E00E94830596958795F7
:1006C000779567957B01F2E320E030E06F1690F0BC
:1006D0002AE5621608F061C0462D4253550B9A0177
:1006E000AFE7B2E00E94830528E230E040E050E04E
:1006F0000E94B20549012E153F0508F4470160E04C
:1007000080E80E94A0001F926F921F927F928CE55A
:1007100091E09F938F931F9281E1F82EFF92CE017B
:1007200001969F938F930E94DC05CE0101960E9453
:10073000E60060E080EC0E94A0009401A4E6B0E036
:100740000E9483052FE732E040E050E00E94B205AE
:100750003F932F939801A4E6B0E00E9483052FE712
:1007600032E040E050E00E94B2051F922F938FE6E6
:1007700091E09F938F931F92FF92FE013196FF931A
:10078000EF930E94DC05CE0101960E94E6000FB6B1
:10079000F894DEBF0FBECDBFA6CE2FE732E0AACFC2
:1007A0004C8A5D8A6E8A7F8A9ECE49F040F0C401F1
:1007B00040968017910708F0B4CE005111099801B6
:1007C000003842E0140710F02FE732E0A4E6B0E072
:1007D0000E9483052FE732E040E050E00E94B2051E
:1007E00081E0293108F480E080939201B801C101D1
:1007F0000E9438009801A4E6B0E00E9483052FE72C
:1008000032E040E050E00E94B20580E0293190F0F3
:100810002951330B47E0429FC001439F900D1124A3
:100820006BE470E00E949E056F5FE62FF0E0EB5FE7
:10083000FE4F80818BBB4AA25BA26CA27DA2F0908E
:100840006300F2FAFF24F0F8AF1409F4A9C05EE1E6
:10085000D51609F49FC0D394FA2CE0906300E3FA14
:10086000EE24E0F8EB1409F4A3C03EE1C31609F44A
:1008700099C0C394EB2C0E9482002B013C01CB0158
:10088000D3012E8D3F8D48A159A1821B930BA40B40
:10089000B50B4497A105B10508F44FC03D8D31114A
:1008A000F6C04C8D4111DBC080E00E945F005C010E
:1008B00081E00E945F009C0158EDA51651E0B5064D
:1008C00008F07FC088ED91E08A199B0968E770E025
:1008D0000E949E0580910001909101010196680F90
:1008E000791F613782E0780708F064C060930001E7
:1008F00070930101283DE1E03E0708F08DC088EDCE
:1009000091E0821B930B68E770E00E949E05809146
:100910000301909104010196680F791F6137F2E09D
:100920007F0708F072C060930301709304010E9476
:1009300073004E8E5F8E68A279A20E9482002B0106
:100940003C01CB01D301288D398D4A8D5B8D821BF3
:10095000930BA40BB50B883E9340A105B10598F00D
:1009600081E090E02114310409F480E0281A390A6A
:10097000B801C1010E943800C1010E944900488E9F
:10098000598E6A8E7B8EAF2CBE2C4C885D886E880B
:100990007F884FCDF11004C0ED8C21E0E226ED8E72
:1009A000D12C5BCFE11004C04C8D51E045274C8F1A
:1009B000C12C61CF81E792E0809300019093010107
:1009C00099CF99E2A91692E0B90608F493CFC50130
:1009D0008852924068E770E00E949E056F5F7F4FEB
:1009E0006630710510F065E070E080910001909133
:1009F0000101AB0143585F4F4817590718F4861B94
:100A0000970BDACF8DE790E0D7CF81E792E0809324
:100A10000301909304018BCF293242E0340708F49C
:100A200086CFC9018852924068E770E00E949E0517
:100A30006F5F7F4F6630710510F065E070E0809168
:100A40000301909104019B0123583F4F2817390758
:100A500018F4861B970BDBCF8DE790E0D8CF0E9470
:100A600073008091030190910401209105012115EB
:100A7000E1F101968137E2E09E0748F281E792E0DA
:100A800080930301909304011092050150CF80914F
:100A9000000190910101209102012115C1F0019600
:100AA000813752E0950728F480930001909301016B
:100AB00008C081E792E080930001909301011092B9
:100AC00002010E9473009C8D9111CBCF30CF8F37E4
:100AD000910510F00197E8CF8DE780930001109207
:100AE000010181E080930201ECCF8F37910510F076
:100AF00001978DCF8DE78093030110920401F1E0FF
:100B0000F093050114CFA29FB001B39FC001A39F32
:100B1000700D811D1124911DB29F700D811D112436
:100B2000911D0895992778E0880F991F961708F06E
:100B3000961B881F7A95C9F780950895AA1BBB1B41
:100B400051E107C0AA1FBB1FA617B70710F0A61BCD
:100B5000B70B881F991F5A95A9F780959095BC01EE
:100B6000CD010895A1E21A2EAA1BBB1BFD010DC0E9
:100B7000AA1FBB1FEE1FFF1FA217B307E407F5074D
:100B800020F0A21BB30BE40BF50B661F771F881F29
:100B9000991F1A9469F760957095809590959B01BF
:100BA000AC01BD01CF010895909580957095619538
:100BB0007F4F8F4F9F4F0895CF93DF93CDB7DEB711
:100BC0002E970FB6F894DEBF0FBECDBF86E08C83A4
:100BD0002B893C8929833A838D899E89813030E82D
:100BE000930710F080E090E801978D839E83AE011B
:100BF000475E5F4F6F89788DCE0101960E9418067F
:100C00004D815E8157FD0BC0EF81F8854E175F0760
:100C10000CF4FA012B893C89E20FF31F10822E9607
:100C20000FB6F894DEBF0FBECDBFDF91CF91089510
:100C30005F926F927F928F929F92AF92BF92CF926C
:100C4000DF92EF92FF920F931F93CF93DF93CDB775
:100C5000DEB72B970FB6F894DEBF0FBECDBF6C0189
:100C60007B018A01FC0116821782838181FFF1C119
:100C70003AE0532EF6012381F70123FD859123FFEE
:100C800081917F01811509F437C1853239F423FD43
:100C9000959123FF91917F01953229F4B60190E05F
:100CA0000E944208E7CF30E0912C612C712CF0E2D9
:100CB0007F1640F59B32D9F058F49032D1F0933240
:100CC000F1F09E3291F576FC17C1689476F806C073
:100CD0009D3291F09033C1F4689470F8F70123FDD0
:100CE000959123FF91917F019111E1CF28C06894E4
:100CF00071F8689472F8F2CF689473F8EFCF689443
:100D000074F8ECCF77FC1BC080ED890F8A30C8F6F1
:100D100076FE05C0959C800D1124982EDFCF659C32
:100D2000800D1124682E7F2AD9CF9C3619F468943F
:100D300077F8D4CF9C3409F445C0983679F2892FDE
:100D40008F7D8554833008F43FC0933609F461C029
:100D5000933709F46BC0933509F477C0943619F0D2
:100D6000993609F0A4C0F80177FE9AC0619171919B
:100D7000819191918F01272D2F76822E97FF04C0AC
:100D80000E94D405689487F82AE030E05E014FEFB6
:100D9000A41AB40AA5010E947208782E7A1886FE59
:100DA000E1C0882D8E7F791408F0DBC084FE2FC14E
:100DB00082FC23C12EEE8222B92C882D867809F47C
:100DC000DDC020C131E08ACF311501F1085F1F4F2E
:100DD0008FE3898321E0822E912C5E012FEFA21AEE
:100DE000B20AE89477F873FC03C086149104F0F11A
:100DF0008114910409F041C0611409F43BCFB6019C
:100E000080E290E00E9442086A94F6CF0C5F1F4F88
:100E1000DFCFF801808189830E5F1F4F91E0892E1B
:100E2000912C5E01FFEFAF1ABF0ADBCFF801A19052
:100E3000B1908F01692D70E076FC02C06FEF7FEFFB
:100E4000C5010E9437084C01CCCFF801A190B190A8
:100E50008F01692D70E076FC02C06FEF7FEFC50156
:100E60000E942C084C01689477F8BDCFB60180E24F
:100E700090E00E9442086A94B8CFF50177FC859112
:100E800077FE81915F01B60190E00E94420881E007
:100E9000611001C080E0681AF1E08F1A9108A8CFB4
:100EA00061917191872F880F880B982F63CF9537A9
:100EB000C9F4872CE89484F82AE030E0F80187FE32
:100EC0004BC061917191819191918F015E01FFEF12
:100ED000AF1ABF0AA5010E947208782E7A18E8940A
:100EE00087F85DCF872D897F882E903729F1E8F428
:100EF000983539F19F3669F1F601868197812B96F5
:100F00000FB6F894DEBF0FBECDBFDF91CF911F911A
:100F10000F91FF90EF90DF90CF90BF90AF909F9098
:100F20008F907F906F905F900895983729F774FCA9
:100F300005C020E130E0C2CF689484F8689482F85C
:100F4000F8CF74FE03C0E72DE6608E2E20E132E07C
:100F5000B5CF28E030E0B2CF6191719180E090E0B0
:100F6000B4CF882EB72C84FE28CFFE01E70DF11DEB
:100F70008081803309F044C049EE842283FC0EC096
:100F800080FE51C0972CB61418F4960C9B18B62C02
:100F9000862D8B196B1408F480E0B80EB61408F097
:100FA00044C06B1884FE43C0B60180E390E00E9409
:100FB000420882FE09C088E590E081FC02C088E713
:100FC00090E0B6010E9442087914E0F15E018FEFD3
:100FD000A81AB80A7A9482E0882E912C8C0E9D1E55
:100FE000870C911CF40182914F01B60190E00E94A0
:100FF00042088A149B04B1F7FFCEB92C882EB5CFD6
:1010000082FC02C0B394BACFB394B394B7CFB92CD7
:10101000882ED3CEB60180E290E00E944208A394CD
:10102000A614C0F3B5CFAB2CFBCF612CBBCF882D62
:10103000867851F280E281FC8BE287FC8DE2B6017A
:1010400090E0C0CFB60180E390E00E9442089A94FD
:10105000BBCF8FEF9FEF53CFFC01059061507040E5
:101060000110D8F7809590958E0F9F1F0895FC0171
:101070006150704001900110D8F7809590958E0FC7
:101080009F1F08950F931F93CF93DF93182F092F5E
:10109000EB018B8181FD09C00FEF1FEF812F902F96
:1010A000DF91CF911F910F91089582FF14C02E817F
:1010B0003F818C819D81281739073CF4E881F981B3
:1010C000CF0101968883998310838E819F81019639
:1010D0008E839F83E3CFE885F985812F0995892B3E
:1010E000A1F3DACFFA01AA27283051F1203181F19A
:1010F000E8946F936E7F6E5F7F4F8F4F9F4FAF4F20
:10110000B1E03ED0B4E03CD0670F781F891F9A1F32
:10111000A11D680F791F8A1F911DA11D6A0F711DE6
:10112000811D911DA11D20D009F468943F912AE0F2
:10113000269F11243019305D3193DEF6CF010895DA
:10114000462F4770405D4193B3E00FD0C9F7F6CF0B
:10115000462F4F70405D4A3318F0495D31FD4052D3
:10116000419302D0A9F7EACFB4E0A6959795879569
:1011700077956795BA95C9F7009761057105089548
:101180009B01AC010A2E06945795479537952795F4
:10119000BA95C9F7620F731F841F951FA01D08958C
:0411A000F894FFCFF1
:1011A40077010177010180C0E0F0F8FCFEFFFDFB50
:1011B400F7EF3F065B4F666D7D077F6F4448542011
:1011C40046616E20436F6E74726F6C00537461726B
:1011D40074696E672E2E2E00444854207265616433
:1011E400206661696C6564202000436865636B2038
:1011F40073656E736F72202020202000543A2533CB
:10120400754320483A2533752525202020200046A3
:101214003A253375252520543A2533752525202074
:021224002000A8
:00000001FF
