:100000000C9414000C9433000C9433000C943300C3
:100010000C9433000C9433000C9433000C94330094
:100020000C9433000C94ED0011241FBECFEFD0E1EF
:10003000DEBFCDBF11E0A0E0B1E0E0E9F1E100E01A
:100040000BBF02C007900D92A238B107D9F721E08B
:10005000A2E8B1E001C01D92A339B207E1F70E9406
:1000600041010C94C6080C940000B898C09A0895F9
:10007000892B21F480919201811511F0C59A089580
:10008000C59808956CE370E00E949405282F862F90
:100090004FB7F8946AE00E948805EDE8F1E08083AC
:1000A0009183822F0E948805828393834FBF089596
:1000B00097B1907E892B87B9369A3699FECF84B155
:1000C00095B108958093730084E8809374008091C3
:1000D000740087FFFCCF0895809100019091010189
:1000E00099BD88BD80910301909104019093870090
:1000F0008093860008952FB7F894609189017091DC
:100100008A0180918B0190918C012FBF089525E683
:1001100030E096B39170981302C081E008952150A9
:10012000304029F095E09A95F1F70000F2CF80E099
:1001300008951F93CF93DF93C82F162F84EA8093DF
:1001400074008091740087FFFCCF8EE40E946200EF
:100150008C2F807FD82FD12B8D2F8C600E94620036
:100160008AE08A95F1F700C08D2F88600E946200B6
:10017000DC2FD295D07FD12B8D2F8C600E94620016
:100180009AE09A95F1F700C08D2F88600E94620076
:1001900084E98093740011110DC0C150C23050F435
:1001A0008FEF98E10197F1F700C00000DF91CF9148
:1001B0001F91089587EC90E00197F1F7F5CFCF9369
:1001C000DF93EC018881811103C0DF91CF91089505
:1001D000219661E00E949900F5CF1F921FB61F92F1
:1001E00011244F934BB74F935F936F937F938F93EC
:1001F0009F93EF93FF9398B34091890150918A01A7
:1002000060918B0170918C014C5F5F4F6F4F7F4FFE
:100210004093890150938A0160938B0170938C0104
:10022000892F8E6188BBE0919101F0E0E357FE4F8A
:10023000E081F0E0EE5EFE4F808185BBE0919101B0
:10024000F0E0E25FFE4F80818E71917E892B88BB4A
:10025000809191018F5F8093910180919101843011
:1002600010F010929101FF91EF919F918F917F91EA
:100270006F915F914F914BBF4F911F901FBE1F9089
:100280001895CDB7DEB7A5970FB6F894DEBF0FBEB1
:10029000CDBF809164008B7F809364008091640067
:1002A000877F80936400BE9A139A82E28FBD2BE110
:1002B0002EBD10927A0087E893E197BD86BD32E8A3
:1002C00030938B0020938A0010928C0090938100D1
:1002D000809380000E946C00809161008E7F8093EB
:1002E0006100809161008D7F809361008091620048
:1002F0008E7F80936200809162008D7F8093620088
:1003000080E487B987E886B91FEF14BB87B38E6195
:1003100087BBBD9A88B38E6188BBC5988CE085BDCC
:1003200089EF83BD87B7806887BF599A8AB1886192
:100330008AB9809195008660809395001092900014
:100340008FEC89B980E090E00E94380080E090E076
:100350000E94420078941092710088E480937000AB
:100360002FEF30E742E0215030404040E1F700C03D
:10037000000060E083E30E94990060E082E30E9455
:10038000990060E088E20E94990060E08CE00E94A1
:10039000990060E081E00E9499008FE39FE101975E
:1003A000F1F700C00000BD9A1ABB1BBA0E943500CD
:1003B000109292011BBA60E080E80E9499008CE1E3
:1003C00091E00E94DF0060E080EC0E9499008CE2E6
:1003D00091E00E94DF009FEFE3EDF0E39150E040F9
:1003E000F040E1F700C00000D12CAA24A394C12C56
:1003F000BA2C1601210131011AA21BA21CA21DA2B6
:10040000188E198E1A8E1B8E1E8E1F8E18A219A280
:10041000410181011C8E1D8E9E012F5F3F4F2A8B53
:100420003B8B60E05F9976C080918801811529F04F
:10043000809182018F5F80938201611561F00E943B
:100440007B00688F798F8A8F9B8FC1010E94380053
:10045000C1010E9442000E947B006C8B7D8B8E8BC1
:100460009F8B8C899D89AE89BF8984199509A609BE
:10047000B709803D9740A105B10508F489C185E021
:10048000EA89FB8911928A95E9F7B89AC098FFEF3B
:1004900020EE30E0F15020403040E1F700C0000095
:1004A0000E94350040EA4A95F1F780E00E948700FB
:1004B0008111A0C060E080E80E94990088E391E08B
:1004C0000E94DF0060E080EC0E9499008AE491E0E5
:1004D0000E94DF000E947B002B013C01CB01D30175
:1004E0002AA13BA14CA15DA1821B930BA40BB50BD0
:1004F00084369105A105B10508F498C108151905C0
:1005000008F04BC1005F1F4F8016910608F04FC1E5
:1005100084014DC18CB15D9BFECF8CB98D3019F03B
:100520008A3009F054C0F0908801F11409F45FC0DA
:10053000E3E8F1E0B0E080E090E0A0E070E050E0BF
:10054000408120ED240F2A3018F5511571F03AE062
:10055000739F400D1124742F70537C3318F4AF5FD8
:10056000A330D8F01092880142C02AE0E22EE89E23
:100570009001E99E300D1124C901C097840F911D8F
:1005800047FD9A958436910568F7BF5FB330E9CF90
:100590004A3341F75111E6CF51E031964E2F23E80F
:1005A00031E0421B4F1560F2B11105C05115D1F277
:1005B000A11103C0D7CF5111FBCF4CE3489F1001CD
:1005C000499F300C1124270E311C61E0CBCF90EDF8
:1005D000980F9B3038F6E0918801E53018F691E0ED
:1005E0009E0F90938801F0E0ED57FE4F80831092AC
:1005F000820118CF81E00E948700811509F45ACF4B
:1006000080E00E948700811509F454CF3FEFF32E5C
:10061000EF2C81E00E948700811509F44BCF55ED46
:100620005A95F1F70000B09B15C0EE2DE095E695C8
:10063000E695E695CE0101968E0F911DFC01C7014E
:10064000877021E001C0220F8A95EAF7822F9081FE
:10065000892B808380E00E948700811509F42ACFCE
:1006600031E0E31AF10847EDE4164FEFF40689F69E
:1006700069807B808A81860D870D9C81890F9D8191
:10068000891318CF5CE1E12CF12C7516A0F08EE1F6
:100690009FE7E92E92E0F92E781668F4E72DEC51E9
:1006A000FF0B9F01AFE7B2E00E9479059695879511
:1006B000779567957B01F2E320E030E06F1690F0CC
:1006C0002AE5621608F061C0462D4253550B9A0187
:1006D000AFE7B2E00E94790528E230E040E050E068
:1006E0000E94A80549012E153F0508F4470160E066
:1006F00080E80E9499001F926F921F927F928CE572
:1007000091E09F938F931F9281E1F82EFF92CE018B
:1007100001969F938F930E94D205CE0101960E946D
:10072000DF0060E080EC0E9499009401A4E6B0E054
:100730000E9479052FE732E040E050E00E94A805D2
:100740003F932F939801A4E6B0E00E9479052FE72C
:1007500032E040E050E00E94A8051F922F938FE600
:1007600091E09F938F931F92FF92FE013196FF932A
:10077000EF930E94D205CE0101960E94DF000FB6D2
:10078000F894DEBF0FBECDBFA5CE2FE732E0AACFD3
:100790004C8A5D8A6E8A7F8A9DCE49F040F0C40102
:1007A00040968017910708F0B3CE005111099801C7
:1007B000003842E0140710F02FE732E0A4E6B0E082
:1007C0000E9479052FE732E040E050E00E94A80542
:1007D00081E0293108F480E080939201C1010E94F8
:1007E00038009801A4E6B0E00E9479052FE732E0D6
:1007F00040E050E00E94A80580E0293190F02951A6
:10080000330B47E0429FC001439F900D11246BE4DE
:1008100070E00E9494056F5FE62FF0E0EB5FFE4F03
:1008200080818BBB4AA25BA26CA27DA2F090630088
:10083000F2FAFF24F0F8AF1409F4A8C05EE1D5166F
:1008400009F49EC0D394FA2CE0906300E3FAEE24FE
:10085000E0F8EB1409F4A2C03EE1C31609F498C015
:10086000C394EB2C0E947B002B013C01CB01D301F4
:100870002E8D3F8D48A159A1821B930BA40BB50B64
:100880004497A105B10508F44FC03D8D3111F5C065
:100890004C8D4111DAC080E00E9458005C0181E07B
:1008A0000E9458009C0158EDA51651E0B50608F0CD
:1008B0007EC088ED91E08A199B0968E770E00E948C
:1008C000940580910001909101010196680F791FB4
:1008D000613782E0780708F063C06093000170938D
:1008E0000101283DE1E03E0708F08CC088ED91E071
:1008F000821B930B68E770E00E94940580910301CE
:10090000909104010196680F791F6137F2E07F072B
:1009100008F071C060930301709304010E946C00A1
:100920004E8E5F8E68A279A20E947B002B013C0153
:10093000CB01D301288D398D4A8D5B8D821B930BA2
:10094000A40BB50B883E9340A105B10590F081E062
:1009500090E02114310409F480E0281A390AC10119
:100960000E943800C1010E944200488E598E6A8E52
:100970007B8EAF2CBE2C4C885D886E887F8851CDD5
:10098000F11004C0ED8C21E0E226ED8ED12C5CCF7D
:10099000E11004C04C8D51E045274C8FC12C62CF33
:1009A00081E792E080930001909301019ACF99E250
:1009B000A91692E0B90608F494CFC5018852924076
:1009C00068E770E00E9494056F5F7F4F66307105A5
:1009D00010F065E070E08091000190910101AB01A1
:1009E00043585F4F4817590718F4861B970BDACF07
:1009F0008DE790E0D7CF81E792E080930301909359
:100A000004018CCF293242E0340708F487CFC901B2
:100A10008852924068E770E00E9494056F5F7F4FB4
:100A20006630710510F065E070E0809103019091EF
:100A300004019B0123583F4F2817390718F4861BE0
:100A4000970BDBCF8DE790E0D8CF0E946C008091B0
:100A5000030190910401209105012115E1F1019616
:100A60008137E2E09E0748F281E792E0809303013C
:100A7000909304011092050151CF80910001909153
:100A80000101209102012115C1F00196813752E048
:100A9000950728F4809300019093010108C081E735
:100AA00092E08093000190930101109202010E9454
:100AB0006C009C8D9111CBCF31CF8F37910510F009
:100AC0000197E8CF8DE7809300011092010181E04A
:100AD00080930201ECCF8F37910510F001978DCFF5
:100AE0008DE78093030110920401F1E0F09305017A
:100AF00015CFA29FB001B39FC001A39F700D811DB0
:100B00001124911DB29F700D811D1124911D089516
:100B1000992778E0880F991F961708F0961B881F71
:100B20007A95C9F780950895AA1BBB1B51E107C0B0
:100B3000AA1FBB1FA617B70710F0A61BB70B881F6D
:100B4000991F5A95A9F780959095BC01CD010895FC
:100B5000A1E21A2EAA1BBB1BFD010DC0AA1FBB1FC1
:100B6000EE1FFF1FA217B307E407F50720F0A21B33
:100B7000B30BE40BF50B661F771F881F991F1A94A0
:100B800069F760957095809590959B01AC01BD01CA
:100B9000CF01089590958095709561957F4F8F4F07
:100BA0009F4F0895CF93DF93CDB7DEB72E970FB643
:100BB000F894DEBF0FBECDBF86E08C832B893C89C5
:100BC00029833A838D899E89813030E8930710F01C
:100BD00080E090E801978D839E83AE01475E5F4F72
:100BE0006F89788DCE0101960E940E064D815E813F
:100BF00057FD0BC0EF81F8854E175F070CF4FA0123
:100C00002B893C89E20FF31F10822E960FB6F894C1
:100C1000DEBF0FBECDBFDF91CF9108955F926F927F
:100C20007F928F929F92AF92BF92CF92DF92EF927C
:100C3000FF920F931F93CF93DF93CDB7DEB72B9720
:100C40000FB6F894DEBF0FBECDBF6C017B018A01E9
:100C5000FC0116821782838181FFF1C13AE0532E95
:100C6000F6012381F70123FD859123FF81917F0107
:100C7000811509F437C1853239F423FD959123FF9D
:100C800091917F01953229F4B60190E00E943808D5
:100C9000E7CF30E0912C612C712CF0E27F1640F50B
:100CA0009B32D9F058F49032D1F09332F1F09E3269
:100CB00091F576FC17C1689476F806C09D3291F0E4
:100CC0009033C1F4689470F8F70123FD959123FFE8
:100CD00091917F019111E1CF28C0689471F86894D7
:100CE00072F8F2CF689473F8EFCF689474F8ECCF91
:100CF00077FC1BC080ED890F8A30C8F676FE05C0F0
:100D0000959C800D1124982EDFCF659C800D1124B9
:100D1000682E7F2AD9CF9C3619F4689477F8D4CFFF
:100D20009C3409F445C0983679F2892F8F7D85541B
:100D3000833008F43FC0933609F461C0933709F457
:100D40006BC0933509F477C0943619F0993609F0E1
:100D5000A4C0F80177FE9AC061917191819191913F
:100D60008F01272D2F76822E97FF04C00E94CA057F
:100D7000689487F82AE030E05E014FEFA41AB40AC5
:100D8000A5010E946808782E7A1886FEE1C0882D99
:100D90008E7F791408F0DBC084FE2FC182FC23C152
:100DA0002EEE8222B92C882D867809F4DDC020C170
:100DB00031E08ACF311501F1085F1F4F8FE389833E
:100DC00021E0822E912C5E012FEFA21AB20AE89444
:100DD00077F873FC03C086149104F0F18114910438
:100DE00009F041C0611409F43BCFB60180E290E004
:100DF0000E9438086A94F6CF0C5F1F4FDFCFF801CE
:100E0000808189830E5F1F4F91E0892E912C5E01B6
:100E1000FFEFAF1ABF0ADBCFF801A190B1908F01AD
:100E2000692D70E076FC02C06FEF7FEFC5010E9474
:100E30002D084C01CCCFF801A190B1908F01692D04
:100E400070E076FC02C06FEF7FEFC5010E942208C0
:100E50004C01689477F8BDCFB60180E290E00E9423
:100E600038086A94B8CFF50177FC859177FE8191B7
:100E70005F01B60190E00E94380881E0611001C076
:100E800080E0681AF1E08F1A9108A8CF6191719102
:100E9000872F880F880B982F63CF9537C9F4872C3D
:100EA000E89484F82AE030E0F80187FE4BC06191B5
:100EB0007191819191918F015E01FFEFAF1ABF0A8D
:100EC000A5010E946808782E7A18E89487F85DCF0B
:100ED000872D897F882E903729F1E8F4983539F1EC
:100EE0009F3669F1F601868197812B960FB6F894AB
:100EF000DEBF0FBECDBFDF91CF911F910F91FF904D
:100F0000EF90DF90CF90BF90AF909F908F907F90A9
:100F10006F905F900895983729F774FC05C020E121
:100F200030E0C2CF689484F8689482F8F8CF74FEF9
:100F300003C0E72DE6608E2E20E132E0B5CF28E039
:100F400030E0B2CF6191719180E090E0B4CF882E13
:100F5000B72C84FE28CFFE01E70DF11D8081803380
:100F600009F044C049EE842283FC0EC080FE51C0CB
:100F7000972CB61418F4960C9B18B62C862D8B194A
:100F80006B1408F480E0B80EB61408F044C06B1877
:100F900084FE43C0B60180E390E00E94380882FEE0
:100FA00009C088E590E081FC02C088E790E0B601C6
:100FB0000E9438087914E0F15E018FEFA81AB80A90
:100FC0007A9482E0882E912C8C0E9D1E870C911CA9
:100FD000F40182914F01B60190E00E9438088A1412
:100FE0009B04B1F7FFCEB92C882EB5CF82FC02C08E
:100FF000B394BACFB394B394B7CFB92C882ED3CED1
:10100000B60180E290E00E943808A394A614C0F3D1
:10101000B5CFAB2CFBCF612CBBCF882D867851F29E
:1010200080E281FC8BE287FC8DE2B60190E0C0CFCC
:10103000B60180E390E00E9438089A94BBCF8FEF0E
:101040009FEF53CFFC010590615070400110D8F71D
:10105000809590958E0F9F1F0895FC016150704000
:1010600001900110D8F7809590958E0F9F1F0895DD
:101070000F931F93CF93DF93182F092FEB018B81D1
:1010800081FD09C00FEF1FEF812F902FDF91CF91CE
:101090001F910F91089582FF14C02E813F818C8192
:1010A0009D81281739073CF4E881F981CF01019629
:1010B0008883998310838E819F8101968E839F837D
:1010C000E3CFE885F985812F0995892BA1F3DACF44
:1010D000FA01AA27283051F1203181F1E8946F9369
:1010E0006E7F6E5F7F4F8F4F9F4FAF4FB1E03ED00F
:1010F000B4E03CD0670F781F891F9A1FA11D680FAD
:10110000791F8A1F911DA11D6A0F711D811D911DDF
:10111000A11D20D009F468943F912AE0269F112454
:101120003019305D3193DEF6CF010895462F4770B8
:10113000405D4193B3E00FD0C9F7F6CF462F4F7013
:10114000405D4A3318F0495D31FD4052419302D071
:10115000A9F7EACFB4E0A695979587957795679517
:10116000BA95C9F700976105710508959B01AC0117
:101170000A2E06945795479537952795BA95C9F73E
:10118000620F731F841F951FA01D0895F894FFCF51
:1011900077010177010180C0E0F0F8FCFEFFFDFB64
:1011A000F7EF3F065B4F666D7D077F6F4448542025
:1011B00046616E20436F6E74726F6C00537461727F
:1011C00074696E672E2E2E00444854207265616447
:1011D000206661696C6564202000436865636B204C
:1011E00073656E736F72202020202000543A2533DF
:1011F000754320483A2533752525202020200046B8
:101200003A253375252520543A2533752525202088
:021210002000BC
:00000001FF
